{
  "_format": "hh-sol-artifact-1",
  "contractName": "MyEpicGame",
  "sourceName": "contracts/MyEpicGame.sol",
  "abi": [
    {
      "inputs": [
        {
          "internalType": "string[]",
          "name": "characterNames",
          "type": "string[]"
        },
        {
          "internalType": "string[]",
          "name": "characterImageURIs",
          "type": "string[]"
        },
        {
          "internalType": "uint256[]",
          "name": "characterHp",
          "type": "uint256[]"
        },
        {
          "internalType": "uint256[]",
          "name": "characterAttackDmg",
          "type": "uint256[]"
        },
        {
          "internalType": "string",
          "name": "bossName",
          "type": "string"
        },
        {
          "internalType": "string",
          "name": "bossImageURI",
          "type": "string"
        },
        {
          "internalType": "uint256",
          "name": "bossHp",
          "type": "uint256"
        },
        {
          "internalType": "uint256",
          "name": "bossAttackDamage",
          "type": "uint256"
        }
      ],
      "stateMutability": "nonpayable",
      "type": "constructor"
    },
    {
      "anonymous": false,
      "inputs": [
        {
          "indexed": true,
          "internalType": "address",
          "name": "owner",
          "type": "address"
        },
        {
          "indexed": true,
          "internalType": "address",
          "name": "approved",
          "type": "address"
        },
        {
          "indexed": true,
          "internalType": "uint256",
          "name": "tokenId",
          "type": "uint256"
        }
      ],
      "name": "Approval",
      "type": "event"
    },
    {
      "anonymous": false,
      "inputs": [
        {
          "indexed": true,
          "internalType": "address",
          "name": "owner",
          "type": "address"
        },
        {
          "indexed": true,
          "internalType": "address",
          "name": "operator",
          "type": "address"
        },
        {
          "indexed": false,
          "internalType": "bool",
          "name": "approved",
          "type": "bool"
        }
      ],
      "name": "ApprovalForAll",
      "type": "event"
    },
    {
      "anonymous": false,
      "inputs": [
        {
          "indexed": false,
          "internalType": "uint256",
          "name": "newBossHp",
          "type": "uint256"
        },
        {
          "indexed": false,
          "internalType": "uint256",
          "name": "newPlayerHp",
          "type": "uint256"
        }
      ],
      "name": "AttackCompleted",
      "type": "event"
    },
    {
      "anonymous": false,
      "inputs": [
        {
          "indexed": false,
          "internalType": "address",
          "name": "sender",
          "type": "address"
        },
        {
          "indexed": false,
          "internalType": "uint256",
          "name": "tokenId",
          "type": "uint256"
        },
        {
          "indexed": false,
          "internalType": "uint256",
          "name": "chracterIndex",
          "type": "uint256"
        }
      ],
      "name": "CharacterNFTMinted",
      "type": "event"
    },
    {
      "anonymous": false,
      "inputs": [
        {
          "indexed": true,
          "internalType": "address",
          "name": "from",
          "type": "address"
        },
        {
          "indexed": true,
          "internalType": "address",
          "name": "to",
          "type": "address"
        },
        {
          "indexed": true,
          "internalType": "uint256",
          "name": "tokenId",
          "type": "uint256"
        }
      ],
      "name": "Transfer",
      "type": "event"
    },
    {
      "inputs": [
        {
          "internalType": "address",
          "name": "to",
          "type": "address"
        },
        {
          "internalType": "uint256",
          "name": "tokenId",
          "type": "uint256"
        }
      ],
      "name": "approve",
      "outputs": [],
      "stateMutability": "nonpayable",
      "type": "function"
    },
    {
      "inputs": [],
      "name": "attackBoss",
      "outputs": [],
      "stateMutability": "nonpayable",
      "type": "function"
    },
    {
      "inputs": [
        {
          "internalType": "address",
          "name": "owner",
          "type": "address"
        }
      ],
      "name": "balanceOf",
      "outputs": [
        {
          "internalType": "uint256",
          "name": "",
          "type": "uint256"
        }
      ],
      "stateMutability": "view",
      "type": "function"
    },
    {
      "inputs": [],
      "name": "bigBoss",
      "outputs": [
        {
          "internalType": "string",
          "name": "name",
          "type": "string"
        },
        {
          "internalType": "string",
          "name": "imageURI",
          "type": "string"
        },
        {
          "internalType": "uint256",
          "name": "hp",
          "type": "uint256"
        },
        {
          "internalType": "uint256",
          "name": "maxHp",
          "type": "uint256"
        },
        {
          "internalType": "uint256",
          "name": "attackDamage",
          "type": "uint256"
        }
      ],
      "stateMutability": "view",
      "type": "function"
    },
    {
      "inputs": [],
      "name": "checkIfUserHasNFT",
      "outputs": [
        {
          "components": [
            {
              "internalType": "uint256",
              "name": "characterIndex",
              "type": "uint256"
            },
            {
              "internalType": "string",
              "name": "name",
              "type": "string"
            },
            {
              "internalType": "string",
              "name": "imageURI",
              "type": "string"
            },
            {
              "internalType": "uint256",
              "name": "hp",
              "type": "uint256"
            },
            {
              "internalType": "uint256",
              "name": "maxHp",
              "type": "uint256"
            },
            {
              "internalType": "uint256",
              "name": "attackDamage",
              "type": "uint256"
            }
          ],
          "internalType": "struct MyEpicGame.CharacterAttributes",
          "name": "",
          "type": "tuple"
        }
      ],
      "stateMutability": "view",
      "type": "function"
    },
    {
      "inputs": [],
      "name": "gerBigBoss",
      "outputs": [
        {
          "components": [
            {
              "internalType": "string",
              "name": "name",
              "type": "string"
            },
            {
              "internalType": "string",
              "name": "imageURI",
              "type": "string"
            },
            {
              "internalType": "uint256",
              "name": "hp",
              "type": "uint256"
            },
            {
              "internalType": "uint256",
              "name": "maxHp",
              "type": "uint256"
            },
            {
              "internalType": "uint256",
              "name": "attackDamage",
              "type": "uint256"
            }
          ],
          "internalType": "struct MyEpicGame.BigBoss",
          "name": "",
          "type": "tuple"
        }
      ],
      "stateMutability": "view",
      "type": "function"
    },
    {
      "inputs": [],
      "name": "getAllDefaultCharacters",
      "outputs": [
        {
          "components": [
            {
              "internalType": "uint256",
              "name": "characterIndex",
              "type": "uint256"
            },
            {
              "internalType": "string",
              "name": "name",
              "type": "string"
            },
            {
              "internalType": "string",
              "name": "imageURI",
              "type": "string"
            },
            {
              "internalType": "uint256",
              "name": "hp",
              "type": "uint256"
            },
            {
              "internalType": "uint256",
              "name": "maxHp",
              "type": "uint256"
            },
            {
              "internalType": "uint256",
              "name": "attackDamage",
              "type": "uint256"
            }
          ],
          "internalType": "struct MyEpicGame.CharacterAttributes[]",
          "name": "",
          "type": "tuple[]"
        }
      ],
      "stateMutability": "view",
      "type": "function"
    },
    {
      "inputs": [
        {
          "internalType": "uint256",
          "name": "tokenId",
          "type": "uint256"
        }
      ],
      "name": "getApproved",
      "outputs": [
        {
          "internalType": "address",
          "name": "",
          "type": "address"
        }
      ],
      "stateMutability": "view",
      "type": "function"
    },
    {
      "inputs": [
        {
          "internalType": "address",
          "name": "owner",
          "type": "address"
        },
        {
          "internalType": "address",
          "name": "operator",
          "type": "address"
        }
      ],
      "name": "isApprovedForAll",
      "outputs": [
        {
          "internalType": "bool",
          "name": "",
          "type": "bool"
        }
      ],
      "stateMutability": "view",
      "type": "function"
    },
    {
      "inputs": [
        {
          "internalType": "uint256",
          "name": "_characterIndex",
          "type": "uint256"
        }
      ],
      "name": "mintCharacterNFT",
      "outputs": [],
      "stateMutability": "nonpayable",
      "type": "function"
    },
    {
      "inputs": [],
      "name": "name",
      "outputs": [
        {
          "internalType": "string",
          "name": "",
          "type": "string"
        }
      ],
      "stateMutability": "view",
      "type": "function"
    },
    {
      "inputs": [
        {
          "internalType": "uint256",
          "name": "",
          "type": "uint256"
        }
      ],
      "name": "nftHolderAttributes",
      "outputs": [
        {
          "internalType": "uint256",
          "name": "characterIndex",
          "type": "uint256"
        },
        {
          "internalType": "string",
          "name": "name",
          "type": "string"
        },
        {
          "internalType": "string",
          "name": "imageURI",
          "type": "string"
        },
        {
          "internalType": "uint256",
          "name": "hp",
          "type": "uint256"
        },
        {
          "internalType": "uint256",
          "name": "maxHp",
          "type": "uint256"
        },
        {
          "internalType": "uint256",
          "name": "attackDamage",
          "type": "uint256"
        }
      ],
      "stateMutability": "view",
      "type": "function"
    },
    {
      "inputs": [
        {
          "internalType": "address",
          "name": "",
          "type": "address"
        }
      ],
      "name": "nftHolders",
      "outputs": [
        {
          "internalType": "uint256",
          "name": "",
          "type": "uint256"
        }
      ],
      "stateMutability": "view",
      "type": "function"
    },
    {
      "inputs": [
        {
          "internalType": "uint256",
          "name": "tokenId",
          "type": "uint256"
        }
      ],
      "name": "ownerOf",
      "outputs": [
        {
          "internalType": "address",
          "name": "",
          "type": "address"
        }
      ],
      "stateMutability": "view",
      "type": "function"
    },
    {
      "inputs": [
        {
          "internalType": "address",
          "name": "from",
          "type": "address"
        },
        {
          "internalType": "address",
          "name": "to",
          "type": "address"
        },
        {
          "internalType": "uint256",
          "name": "tokenId",
          "type": "uint256"
        }
      ],
      "name": "safeTransferFrom",
      "outputs": [],
      "stateMutability": "nonpayable",
      "type": "function"
    },
    {
      "inputs": [
        {
          "internalType": "address",
          "name": "from",
          "type": "address"
        },
        {
          "internalType": "address",
          "name": "to",
          "type": "address"
        },
        {
          "internalType": "uint256",
          "name": "tokenId",
          "type": "uint256"
        },
        {
          "internalType": "bytes",
          "name": "data",
          "type": "bytes"
        }
      ],
      "name": "safeTransferFrom",
      "outputs": [],
      "stateMutability": "nonpayable",
      "type": "function"
    },
    {
      "inputs": [
        {
          "internalType": "address",
          "name": "operator",
          "type": "address"
        },
        {
          "internalType": "bool",
          "name": "approved",
          "type": "bool"
        }
      ],
      "name": "setApprovalForAll",
      "outputs": [],
      "stateMutability": "nonpayable",
      "type": "function"
    },
    {
      "inputs": [
        {
          "internalType": "bytes4",
          "name": "interfaceId",
          "type": "bytes4"
        }
      ],
      "name": "supportsInterface",
      "outputs": [
        {
          "internalType": "bool",
          "name": "",
          "type": "bool"
        }
      ],
      "stateMutability": "view",
      "type": "function"
    },
    {
      "inputs": [],
      "name": "symbol",
      "outputs": [
        {
          "internalType": "string",
          "name": "",
          "type": "string"
        }
      ],
      "stateMutability": "view",
      "type": "function"
    },
    {
      "inputs": [
        {
          "internalType": "uint256",
          "name": "_tokenId",
          "type": "uint256"
        }
      ],
      "name": "tokenURI",
      "outputs": [
        {
          "internalType": "string",
          "name": "",
          "type": "string"
        }
      ],
      "stateMutability": "view",
      "type": "function"
    },
    {
      "inputs": [
        {
          "internalType": "address",
          "name": "from",
          "type": "address"
        },
        {
          "internalType": "address",
          "name": "to",
          "type": "address"
        },
        {
          "internalType": "uint256",
          "name": "tokenId",
          "type": "uint256"
        }
      ],
      "name": "transferFrom",
      "outputs": [],
      "stateMutability": "nonpayable",
      "type": "function"
    }
  ],
  "bytecode": "0x60806040523480156200001157600080fd5b50604051620059f7380380620059f78339818101604052810190620000379190620009f5565b6040518060400160405280600881526020017f4f6e6550696563650000000000000000000000000000000000000000000000008152506040518060400160405280600881526020017f4f4e4550494543450000000000000000000000000000000000000000000000008152508160009081620000b4919062000db9565b508060019081620000c6919062000db9565b50505060005b8851811015620003fe57600c6040518060c001604052808381526020018b8481518110620000ff57620000fe62000ea0565b5b602002602001015181526020018a848151811062000122576200012162000ea0565b5b6020026020010151815260200189848151811062000145576200014462000ea0565b5b6020026020010151815260200189848151811062000168576200016762000ea0565b5b602002602001015181526020018884815181106200018b576200018a62000ea0565b5b60200260200101518152509080600181540180825580915050600190039060005260206000209060060201600090919091909150600082015181600001556020820151816001019081620001e0919062000db9565b506040820151816002019081620001f8919062000db9565b50606082015181600301556080820151816004015560a0820151816005015550506000600c828154811062000232576200023162000ea0565b5b90600052602060002090600602016040518060c001604052908160008201548152602001600182018054620002679062000bb2565b80601f0160208091040260200160405190810160405280929190818152602001828054620002959062000bb2565b8015620002e65780601f10620002ba57610100808354040283529160200191620002e6565b820191906000526020600020905b815481529060010190602001808311620002c857829003601f168201915b50505050508152602001600282018054620003019062000bb2565b80601f01602080910402602001604051908101604052809291908181526020018280546200032f9062000bb2565b8015620003805780601f10620003545761010080835404028352916020019162000380565b820191906000526020600020905b8154815290600101906020018083116200036257829003601f168201915b5050505050815260200160038201548152602001600482015481526020016005820154815250509050620003e7604051806060016040528060268152602001620059a6602691398260200151836060015184604001516200056a60201b62001a9c1760201c565b508080620003f59062000efe565b915050620000cc565b506040518060a0016040528085815260200184815260200183815260200183815260200182815250600660008201518160000190816200043f919062000db9565b50602082015181600101908162000457919062000db9565b50604082015181600201556060820151816003015560808201518160040155905050620005456040518060600160405280602b8152602001620059cc602b913960066000018054620004a99062000bb2565b80601f0160208091040260200160405190810160405280929190818152602001828054620004d79062000bb2565b8015620005285780601f10620004fc5761010080835404028352916020019162000528565b820191906000526020600020905b8154815290600101906020018083116200050a57829003601f168201915b5050505050600660020154866200056a60201b62001a9c1760201c565b6200055c600b6200061660201b62001b3e1760201c565b505050505050505062001010565b620006108484848460405160240162000587949392919062000fae565b6040516020818303038152906040527f5d1a971a000000000000000000000000000000000000000000000000000000007bffffffffffffffffffffffffffffffffffffffffffffffffffffffff19166020820180517bffffffffffffffffffffffffffffffffffffffffffffffffffffffff83818316178352505050506200062c60201b60201c565b50505050565b6001816000016000828254019250508190555050565b60008151905060006a636f6e736f6c652e6c6f679050602083016000808483855afa5050505050565b6000604051905090565b600080fd5b600080fd5b600080fd5b6000601f19601f8301169050919050565b7f4e487b7100000000000000000000000000000000000000000000000000000000600052604160045260246000fd5b620006b9826200066e565b810181811067ffffffffffffffff82111715620006db57620006da6200067f565b5b80604052505050565b6000620006f062000655565b9050620006fe8282620006ae565b919050565b600067ffffffffffffffff8211156200072157620007206200067f565b5b602082029050602081019050919050565b600080fd5b600080fd5b600067ffffffffffffffff8211156200075a57620007596200067f565b5b62000765826200066e565b9050602081019050919050565b60005b838110156200079257808201518184015260208101905062000775565b60008484015250505050565b6000620007b5620007af846200073c565b620006e4565b905082815260208101848484011115620007d457620007d362000737565b5b620007e184828562000772565b509392505050565b600082601f83011262000801576200080062000669565b5b8151620008138482602086016200079e565b91505092915050565b6000620008336200082d8462000703565b620006e4565b9050808382526020820190506020840283018581111562000859576200085862000732565b5b835b81811015620008a757805167ffffffffffffffff81111562000882576200088162000669565b5b808601620008918982620007e9565b855260208501945050506020810190506200085b565b5050509392505050565b600082601f830112620008c957620008c862000669565b5b8151620008db8482602086016200081c565b91505092915050565b600067ffffffffffffffff8211156200090257620009016200067f565b5b602082029050602081019050919050565b6000819050919050565b620009288162000913565b81146200093457600080fd5b50565b60008151905062000948816200091d565b92915050565b6000620009656200095f84620008e4565b620006e4565b905080838252602082019050602084028301858111156200098b576200098a62000732565b5b835b81811015620009b85780620009a3888262000937565b8452602084019350506020810190506200098d565b5050509392505050565b600082601f830112620009da57620009d962000669565b5b8151620009ec8482602086016200094e565b91505092915050565b600080600080600080600080610100898b03121562000a195762000a186200065f565b5b600089015167ffffffffffffffff81111562000a3a5762000a3962000664565b5b62000a488b828c01620008b1565b985050602089015167ffffffffffffffff81111562000a6c5762000a6b62000664565b5b62000a7a8b828c01620008b1565b975050604089015167ffffffffffffffff81111562000a9e5762000a9d62000664565b5b62000aac8b828c01620009c2565b965050606089015167ffffffffffffffff81111562000ad05762000acf62000664565b5b62000ade8b828c01620009c2565b955050608089015167ffffffffffffffff81111562000b025762000b0162000664565b5b62000b108b828c01620007e9565b94505060a089015167ffffffffffffffff81111562000b345762000b3362000664565b5b62000b428b828c01620007e9565b93505060c062000b558b828c0162000937565b92505060e062000b688b828c0162000937565b9150509295985092959890939650565b600081519050919050565b7f4e487b7100000000000000000000000000000000000000000000000000000000600052602260045260246000fd5b6000600282049050600182168062000bcb57607f821691505b60208210810362000be15762000be062000b83565b5b50919050565b60008190508160005260206000209050919050565b60006020601f8301049050919050565b600082821b905092915050565b60006008830262000c4b7fffffffffffffffffffffffffffffffffffffffffffffffffffffffffffffffff8262000c0c565b62000c57868362000c0c565b95508019841693508086168417925050509392505050565b6000819050919050565b600062000c9a62000c9462000c8e8462000913565b62000c6f565b62000913565b9050919050565b6000819050919050565b62000cb68362000c79565b62000cce62000cc58262000ca1565b84845462000c19565b825550505050565b600090565b62000ce562000cd6565b62000cf281848462000cab565b505050565b5b8181101562000d1a5762000d0e60008262000cdb565b60018101905062000cf8565b5050565b601f82111562000d695762000d338162000be7565b62000d3e8462000bfc565b8101602085101562000d4e578190505b62000d6662000d5d8562000bfc565b83018262000cf7565b50505b505050565b600082821c905092915050565b600062000d8e6000198460080262000d6e565b1980831691505092915050565b600062000da9838362000d7b565b9150826002028217905092915050565b62000dc48262000b78565b67ffffffffffffffff81111562000de05762000ddf6200067f565b5b62000dec825462000bb2565b62000df982828562000d1e565b600060209050601f83116001811462000e31576000841562000e1c578287015190505b62000e28858262000d9b565b86555062000e98565b601f19841662000e418662000be7565b60005b8281101562000e6b5784890151825560018201915060208501945060208101905062000e44565b8683101562000e8b578489015162000e87601f89168262000d7b565b8355505b6001600288020188555050505b505050505050565b7f4e487b7100000000000000000000000000000000000000000000000000000000600052603260045260246000fd5b7f4e487b7100000000000000000000000000000000000000000000000000000000600052601160045260246000fd5b600062000f0b8262000913565b91507fffffffffffffffffffffffffffffffffffffffffffffffffffffffffffffffff820362000f405762000f3f62000ecf565b5b600182019050919050565b600082825260208201905092915050565b600062000f698262000b78565b62000f75818562000f4b565b935062000f8781856020860162000772565b62000f92816200066e565b840191505092915050565b62000fa88162000913565b82525050565b6000608082019050818103600083015262000fca818762000f5c565b9050818103602083015262000fe0818662000f5c565b905062000ff1604083018562000f9d565b818103606083015262001005818462000f5c565b905095945050505050565b61498680620010206000396000f3fe608060405234801561001057600080fd5b50600436106101375760003560e01c806395d89b41116100b8578063b953084e1161007c578063b953084e14610369578063c87b56dd14610387578063c8cf27f4146103b7578063d4f24c5b146103d5578063e985e9c5146103df578063f8b81ef71461040f57610137565b806395d89b41146102bc57806398da4c95146102da578063a22cb4651461030f578063a9c326791461032b578063b88d4fde1461034d57610137565b806342842e0e116100ff57806342842e0e146101f2578063460920831461020e5780636352211e1461022c57806370a082311461025c5780637df124a11461028c57610137565b806301ffc9a71461013c57806306fdde031461016c578063081812fc1461018a578063095ea7b3146101ba57806323b872dd146101d6575b600080fd5b61015660048036038101906101519190612d87565b61042b565b6040516101639190612dcf565b60405180910390f35b61017461050d565b6040516101819190612e7a565b60405180910390f35b6101a4600480360381019061019f9190612ed2565b61059f565b6040516101b19190612f40565b60405180910390f35b6101d460048036038101906101cf9190612f87565b6105e5565b005b6101f060048036038101906101eb9190612fc7565b6106fc565b005b61020c60048036038101906102079190612fc7565b61075c565b005b61021661077c565b60405161022391906130f0565b60405180910390f35b61024660048036038101906102419190612ed2565b6108d8565b6040516102539190612f40565b60405180910390f35b61027660048036038101906102719190613112565b61095e565b604051610283919061314e565b60405180910390f35b6102a660048036038101906102a19190613112565b610a15565b6040516102b3919061314e565b60405180910390f35b6102c4610a2d565b6040516102d19190612e7a565b60405180910390f35b6102f460048036038101906102ef9190612ed2565b610abf565b60405161030696959493929190613169565b60405180910390f35b61032960048036038101906103249190613204565b610c0b565b005b610333610c21565b604051610344959493929190613244565b60405180910390f35b610367600480360381019061036291906133da565b610d55565b005b610371610db7565b60405161037e91906135af565b60405180910390f35b6103a1600480360381019061039c9190612ed2565b610f62565b6040516103ae9190612e7a565b60405180910390f35b6103bf61117d565b6040516103cc9190613661565b60405180910390f35b6103dd611355565b005b6103f960048036038101906103f49190613683565b6116e0565b6040516104069190612dcf565b60405180910390f35b61042960048036038101906104249190612ed2565b611774565b005b60007f80ac58cd000000000000000000000000000000000000000000000000000000007bffffffffffffffffffffffffffffffffffffffffffffffffffffffff1916827bffffffffffffffffffffffffffffffffffffffffffffffffffffffff191614806104f657507f5b5e139f000000000000000000000000000000000000000000000000000000007bffffffffffffffffffffffffffffffffffffffffffffffffffffffff1916827bffffffffffffffffffffffffffffffffffffffffffffffffffffffff1916145b80610506575061050582611b54565b5b9050919050565b60606000805461051c906136f2565b80601f0160208091040260200160405190810160405280929190818152602001828054610548906136f2565b80156105955780601f1061056a57610100808354040283529160200191610595565b820191906000526020600020905b81548152906001019060200180831161057857829003601f168201915b5050505050905090565b60006105aa82611bbe565b6004600083815260200190815260200160002060009054906101000a900473ffffffffffffffffffffffffffffffffffffffff169050919050565b60006105f0826108d8565b90508073ffffffffffffffffffffffffffffffffffffffff168373ffffffffffffffffffffffffffffffffffffffff1603610660576040517f08c379a000000000000000000000000000000000000000000000000000000000815260040161065790613795565b60405180910390fd5b8073ffffffffffffffffffffffffffffffffffffffff1661067f611c09565b73ffffffffffffffffffffffffffffffffffffffff1614806106ae57506106ad816106a8611c09565b6116e0565b5b6106ed576040517f08c379a00000000000000000000000000000000000000000000000000000000081526004016106e490613827565b60405180910390fd5b6106f78383611c11565b505050565b61070d610707611c09565b82611cca565b61074c576040517f08c379a0000000000000000000000000000000000000000000000000000000008152600401610743906138b9565b60405180910390fd5b610757838383611d5f565b505050565b61077783838360405180602001604052806000815250610d55565b505050565b610784612cb6565b60066040518060a00160405290816000820180546107a1906136f2565b80601f01602080910402602001604051908101604052809291908181526020018280546107cd906136f2565b801561081a5780601f106107ef5761010080835404028352916020019161081a565b820191906000526020600020905b8154815290600101906020018083116107fd57829003601f168201915b50505050508152602001600182018054610833906136f2565b80601f016020809104026020016040519081016040528092919081815260200182805461085f906136f2565b80156108ac5780601f10610881576101008083540402835291602001916108ac565b820191906000526020600020905b81548152906001019060200180831161088f57829003601f168201915b505050505081526020016002820154815260200160038201548152602001600482015481525050905090565b6000806108e483612058565b9050600073ffffffffffffffffffffffffffffffffffffffff168173ffffffffffffffffffffffffffffffffffffffff1603610955576040517f08c379a000000000000000000000000000000000000000000000000000000000815260040161094c90613925565b60405180910390fd5b80915050919050565b60008073ffffffffffffffffffffffffffffffffffffffff168273ffffffffffffffffffffffffffffffffffffffff16036109ce576040517f08c379a00000000000000000000000000000000000000000000000000000000081526004016109c5906139b7565b60405180910390fd5b600360008373ffffffffffffffffffffffffffffffffffffffff1673ffffffffffffffffffffffffffffffffffffffff168152602001908152602001600020549050919050565b600e6020528060005260406000206000915090505481565b606060018054610a3c906136f2565b80601f0160208091040260200160405190810160405280929190818152602001828054610a68906136f2565b8015610ab55780601f10610a8a57610100808354040283529160200191610ab5565b820191906000526020600020905b815481529060010190602001808311610a9857829003601f168201915b5050505050905090565b600d602052806000526040600020600091509050806000015490806001018054610ae8906136f2565b80601f0160208091040260200160405190810160405280929190818152602001828054610b14906136f2565b8015610b615780601f10610b3657610100808354040283529160200191610b61565b820191906000526020600020905b815481529060010190602001808311610b4457829003601f168201915b505050505090806002018054610b76906136f2565b80601f0160208091040260200160405190810160405280929190818152602001828054610ba2906136f2565b8015610bef5780601f10610bc457610100808354040283529160200191610bef565b820191906000526020600020905b815481529060010190602001808311610bd257829003601f168201915b5050505050908060030154908060040154908060050154905086565b610c1d610c16611c09565b8383612095565b5050565b6006806000018054610c32906136f2565b80601f0160208091040260200160405190810160405280929190818152602001828054610c5e906136f2565b8015610cab5780601f10610c8057610100808354040283529160200191610cab565b820191906000526020600020905b815481529060010190602001808311610c8e57829003601f168201915b505050505090806001018054610cc0906136f2565b80601f0160208091040260200160405190810160405280929190818152602001828054610cec906136f2565b8015610d395780601f10610d0e57610100808354040283529160200191610d39565b820191906000526020600020905b815481529060010190602001808311610d1c57829003601f168201915b5050505050908060020154908060030154908060040154905085565b610d66610d60611c09565b83611cca565b610da5576040517f08c379a0000000000000000000000000000000000000000000000000000000008152600401610d9c906138b9565b60405180910390fd5b610db184848484612201565b50505050565b6060600c805480602002602001604051908101604052809291908181526020016000905b82821015610f5957838290600052602060002090600602016040518060c001604052908160008201548152602001600182018054610e18906136f2565b80601f0160208091040260200160405190810160405280929190818152602001828054610e44906136f2565b8015610e915780601f10610e6657610100808354040283529160200191610e91565b820191906000526020600020905b815481529060010190602001808311610e7457829003601f168201915b50505050508152602001600282018054610eaa906136f2565b80601f0160208091040260200160405190810160405280929190818152602001828054610ed6906136f2565b8015610f235780601f10610ef857610100808354040283529160200191610f23565b820191906000526020600020905b815481529060010190602001808311610f0657829003601f168201915b50505050508152602001600382015481526020016004820154815260200160058201548152505081526020019060010190610ddb565b50505050905090565b60606000600d60008481526020019081526020016000206040518060c001604052908160008201548152602001600182018054610f9e906136f2565b80601f0160208091040260200160405190810160405280929190818152602001828054610fca906136f2565b80156110175780601f10610fec57610100808354040283529160200191611017565b820191906000526020600020905b815481529060010190602001808311610ffa57829003601f168201915b50505050508152602001600282018054611030906136f2565b80601f016020809104026020016040519081016040528092919081815260200182805461105c906136f2565b80156110a95780601f1061107e576101008083540402835291602001916110a9565b820191906000526020600020905b81548152906001019060200180831161108c57829003601f168201915b505050505081526020016003820154815260200160048201548152602001600582015481525050905060006110e1826060015161225d565b905060006110f2836080015161225d565b905060006111038460a0015161225d565b9050600061114985602001516111188961225d565b876040015187878760405160200161113596959493929190613ce5565b60405160208183030381529060405261232b565b905060008160405160200161115e9190613dd6565b6040516020818303038152906040529050809650505050505050919050565b611185612ce5565b6000600e60003373ffffffffffffffffffffffffffffffffffffffff1673ffffffffffffffffffffffffffffffffffffffff168152602001908152602001600020549050600081111561134457600d60008281526020019081526020016000206040518060c00160405290816000820154815260200160018201805461120a906136f2565b80601f0160208091040260200160405190810160405280929190818152602001828054611236906136f2565b80156112835780601f1061125857610100808354040283529160200191611283565b820191906000526020600020905b81548152906001019060200180831161126657829003601f168201915b5050505050815260200160028201805461129c906136f2565b80601f01602080910402602001604051908101604052809291908181526020018280546112c8906136f2565b80156113155780601f106112ea57610100808354040283529160200191611315565b820191906000526020600020905b8154815290600101906020018083116112f857829003601f168201915b505050505081526020016003820154815260200160048201548152602001600582015481525050915050611352565b61134c612ce5565b80925050505b90565b6000600e60003373ffffffffffffffffffffffffffffffffffffffff1673ffffffffffffffffffffffffffffffffffffffff1681526020019081526020016000205490506000600d600083815260200190815260200160002090506114686040518060600160405280603c8152602001614915603c91398260010180546113db906136f2565b80601f0160208091040260200160405190810160405280929190818152602001828054611407906136f2565b80156114545780601f1061142957610100808354040283529160200191611454565b820191906000526020600020905b81548152906001019060200180831161143757829003601f168201915b5050505050836003015484600501546124c2565b6115406040518060400160405280601b81526020017f426f73732025732068617320257320485020616e642025732041440000000000815250600660000180546114b1906136f2565b80601f01602080910402602001604051908101604052809291908181526020018280546114dd906136f2565b801561152a5780601f106114ff5761010080835404028352916020019161152a565b820191906000526020600020905b81548152906001019060200180831161150d57829003601f168201915b50505050506006600201546006600401546124c2565b6000816003015411611587576040517f08c379a000000000000000000000000000000000000000000000000000000000815260040161157e90613e6a565b60405180910390fd5b6000600660020154116115cf576040517f08c379a00000000000000000000000000000000000000000000000000000000081526004016115c690613efc565b60405180910390fd5b806005015460066002015410156115f057600060066002018190555061160f565b80600501546006600201546116059190613f4b565b6006600201819055505b6006600401548160030154101561162f576000816003018190555061164d565b60066004015481600301546116449190613f4b565b81600301819055505b6116746040518060600160405280602581526020016148c960259139600660020154612564565b61169a6040518060600160405280602781526020016148ee602791398260030154612564565b7f24596b044f9390b6f54a6470706bb6795f0a3a4b6d148ca80241481a5f60938c60066002015482600301546040516116d4929190613f7f565b60405180910390a15050565b6000600560008473ffffffffffffffffffffffffffffffffffffffff1673ffffffffffffffffffffffffffffffffffffffff16815260200190815260200160002060008373ffffffffffffffffffffffffffffffffffffffff1673ffffffffffffffffffffffffffffffffffffffff16815260200190815260200160002060009054906101000a900460ff16905092915050565b6000611780600b612600565b905061178c338261260e565b6040518060c00160405280838152602001600c84815481106117b1576117b0613fa8565b5b906000526020600020906006020160010180546117cd906136f2565b80601f01602080910402602001604051908101604052809291908181526020018280546117f9906136f2565b80156118465780601f1061181b57610100808354040283529160200191611846565b820191906000526020600020905b81548152906001019060200180831161182957829003601f168201915b50505050508152602001600c848154811061186457611863613fa8565b5b90600052602060002090600602016002018054611880906136f2565b80601f01602080910402602001604051908101604052809291908181526020018280546118ac906136f2565b80156118f95780601f106118ce576101008083540402835291602001916118f9565b820191906000526020600020905b8154815290600101906020018083116118dc57829003601f168201915b50505050508152602001600c848154811061191757611916613fa8565b5b9060005260206000209060060201600301548152602001600c848154811061194257611941613fa8565b5b9060005260206000209060060201600401548152602001600c848154811061196d5761196c613fa8565b5b906000526020600020906006020160050154815250600d60008381526020019081526020016000206000820151816000015560208201518160010190816119b49190614183565b5060408201518160020190816119ca9190614183565b50606082015181600301556080820151816004015560a08201518160050155905050611a0f6040518060600160405280602e815260200161485b602e9139828461262c565b80600e60003373ffffffffffffffffffffffffffffffffffffffff1673ffffffffffffffffffffffffffffffffffffffff16815260200190815260200160002081905550611a5d600b611b3e565b7f4bc303fd457a97b4691b9af582ce71868a3d258638c8d4f8c60988a0f0bfb8cd338284604051611a9093929190614255565b60405180910390a15050565b611b3884848484604051602401611ab6949392919061428c565b6040516020818303038152906040527f5d1a971a000000000000000000000000000000000000000000000000000000007bffffffffffffffffffffffffffffffffffffffffffffffffffffffff19166020820180517bffffffffffffffffffffffffffffffffffffffffffffffffffffffff83818316178352505050506126cb565b50505050565b6001816000016000828254019250508190555050565b60007f01ffc9a7000000000000000000000000000000000000000000000000000000007bffffffffffffffffffffffffffffffffffffffffffffffffffffffff1916827bffffffffffffffffffffffffffffffffffffffffffffffffffffffff1916149050919050565b611bc7816126f4565b611c06576040517f08c379a0000000000000000000000000000000000000000000000000000000008152600401611bfd90613925565b60405180910390fd5b50565b600033905090565b816004600083815260200190815260200160002060006101000a81548173ffffffffffffffffffffffffffffffffffffffff021916908373ffffffffffffffffffffffffffffffffffffffff160217905550808273ffffffffffffffffffffffffffffffffffffffff16611c84836108d8565b73ffffffffffffffffffffffffffffffffffffffff167f8c5be1e5ebec7d5bd14f71427d1e84f3dd0314c0f7b2291e5b200ac8c7c3b92560405160405180910390a45050565b600080611cd6836108d8565b90508073ffffffffffffffffffffffffffffffffffffffff168473ffffffffffffffffffffffffffffffffffffffff161480611d185750611d1781856116e0565b5b80611d5657508373ffffffffffffffffffffffffffffffffffffffff16611d3e8461059f565b73ffffffffffffffffffffffffffffffffffffffff16145b91505092915050565b8273ffffffffffffffffffffffffffffffffffffffff16611d7f826108d8565b73ffffffffffffffffffffffffffffffffffffffff1614611dd5576040517f08c379a0000000000000000000000000000000000000000000000000000000008152600401611dcc90614358565b60405180910390fd5b600073ffffffffffffffffffffffffffffffffffffffff168273ffffffffffffffffffffffffffffffffffffffff1603611e44576040517f08c379a0000000000000000000000000000000000000000000000000000000008152600401611e3b906143ea565b60405180910390fd5b611e518383836001612735565b8273ffffffffffffffffffffffffffffffffffffffff16611e71826108d8565b73ffffffffffffffffffffffffffffffffffffffff1614611ec7576040517f08c379a0000000000000000000000000000000000000000000000000000000008152600401611ebe90614358565b60405180910390fd5b6004600082815260200190815260200160002060006101000a81549073ffffffffffffffffffffffffffffffffffffffff02191690556001600360008573ffffffffffffffffffffffffffffffffffffffff1673ffffffffffffffffffffffffffffffffffffffff168152602001908152602001600020600082825403925050819055506001600360008473ffffffffffffffffffffffffffffffffffffffff1673ffffffffffffffffffffffffffffffffffffffff16815260200190815260200160002060008282540192505081905550816002600083815260200190815260200160002060006101000a81548173ffffffffffffffffffffffffffffffffffffffff021916908373ffffffffffffffffffffffffffffffffffffffff160217905550808273ffffffffffffffffffffffffffffffffffffffff168473ffffffffffffffffffffffffffffffffffffffff167fddf252ad1be2c89b69c2b068fc378daa952ba7f163c4a11628f55a4df523b3ef60405160405180910390a4612053838383600161273b565b505050565b60006002600083815260200190815260200160002060009054906101000a900473ffffffffffffffffffffffffffffffffffffffff169050919050565b8173ffffffffffffffffffffffffffffffffffffffff168373ffffffffffffffffffffffffffffffffffffffff1603612103576040517f08c379a00000000000000000000000000000000000000000000000000000000081526004016120fa90614456565b60405180910390fd5b80600560008573ffffffffffffffffffffffffffffffffffffffff1673ffffffffffffffffffffffffffffffffffffffff16815260200190815260200160002060008473ffffffffffffffffffffffffffffffffffffffff1673ffffffffffffffffffffffffffffffffffffffff16815260200190815260200160002060006101000a81548160ff0219169083151502179055508173ffffffffffffffffffffffffffffffffffffffff168373ffffffffffffffffffffffffffffffffffffffff167f17307eab39ab6107e8899845ad3d59bd9653f200f220920489ca2b5937696c31836040516121f49190612dcf565b60405180910390a3505050565b61220c848484611d5f565b61221884848484612741565b612257576040517f08c379a000000000000000000000000000000000000000000000000000000000815260040161224e906144e8565b60405180910390fd5b50505050565b60606000600161226c846128c8565b01905060008167ffffffffffffffff81111561228b5761228a6132af565b5b6040519080825280601f01601f1916602001820160405280156122bd5781602001600182028036833780820191505090505b509050600082602001820190505b600115612320578080600190039150507f3031323334353637383961626364656600000000000000000000000000000000600a86061a8153600a858161231457612313614508565b5b049450600085036122cb575b819350505050919050565b60606000825190506000810361235357604051806020016040528060008152509150506124bd565b600060036002836123649190614537565b61236e919061456b565b600461237a919061459c565b9050600060208261238b9190614537565b67ffffffffffffffff8111156123a4576123a36132af565b5b6040519080825280601f01601f1916602001820160405280156123d65781602001600182028036833780820191505090505b5090506000604051806060016040528060408152602001614889604091399050600181016020830160005b8681101561247a5760038101905062ffffff818a015116603f8160121c168401518060081b905060ff603f83600c1c1686015116810190508060081b905060ff603f8360061c1686015116810190508060081b905060ff603f831686015116810190508060e01b90508084526004840193505050612401565b50600386066001811461249457600281146124a4576124af565b613d3d60f01b60028303526124af565b603d60f81b60018303525b508484525050819450505050505b919050565b61255e848484846040516024016124dc94939291906145de565b6040516020818303038152906040527ff45d7d2c000000000000000000000000000000000000000000000000000000007bffffffffffffffffffffffffffffffffffffffffffffffffffffffff19166020820180517bffffffffffffffffffffffffffffffffffffffffffffffffffffffff83818316178352505050506126cb565b50505050565b6125fc828260405160240161257a929190614631565b6040516020818303038152906040527fb60e72cc000000000000000000000000000000000000000000000000000000007bffffffffffffffffffffffffffffffffffffffffffffffffffffffff19166020820180517bffffffffffffffffffffffffffffffffffffffffffffffffffffffff83818316178352505050506126cb565b5050565b600081600001549050919050565b612628828260405180602001604052806000815250612a1b565b5050565b6126c683838360405160240161264493929190614661565b6040516020818303038152906040527fca47c4eb000000000000000000000000000000000000000000000000000000007bffffffffffffffffffffffffffffffffffffffffffffffffffffffff19166020820180517bffffffffffffffffffffffffffffffffffffffffffffffffffffffff83818316178352505050506126cb565b505050565b60008151905060006a636f6e736f6c652e6c6f679050602083016000808483855afa5050505050565b60008073ffffffffffffffffffffffffffffffffffffffff1661271683612058565b73ffffffffffffffffffffffffffffffffffffffff1614159050919050565b50505050565b50505050565b60006127628473ffffffffffffffffffffffffffffffffffffffff16612a76565b156128bb578373ffffffffffffffffffffffffffffffffffffffff1663150b7a0261278b611c09565b8786866040518563ffffffff1660e01b81526004016127ad94939291906146f4565b6020604051808303816000875af19250505080156127e957506040513d601f19601f820116820180604052508101906127e69190614755565b60015b61286b573d8060008114612819576040519150601f19603f3d011682016040523d82523d6000602084013e61281e565b606091505b506000815103612863576040517f08c379a000000000000000000000000000000000000000000000000000000000815260040161285a906144e8565b60405180910390fd5b805181602001fd5b63150b7a0260e01b7bffffffffffffffffffffffffffffffffffffffffffffffffffffffff1916817bffffffffffffffffffffffffffffffffffffffffffffffffffffffff1916149150506128c0565b600190505b949350505050565b600080600090507a184f03e93ff9f4daa797ed6e38ed64bf6a1f0100000000000000008310612926577a184f03e93ff9f4daa797ed6e38ed64bf6a1f010000000000000000838161291c5761291b614508565b5b0492506040810190505b6d04ee2d6d415b85acef81000000008310612963576d04ee2d6d415b85acef8100000000838161295957612958614508565b5b0492506020810190505b662386f26fc10000831061299257662386f26fc10000838161298857612987614508565b5b0492506010810190505b6305f5e10083106129bb576305f5e10083816129b1576129b0614508565b5b0492506008810190505b61271083106129e05761271083816129d6576129d5614508565b5b0492506004810190505b60648310612a0357606483816129f9576129f8614508565b5b0492506002810190505b600a8310612a12576001810190505b80915050919050565b612a258383612a99565b612a326000848484612741565b612a71576040517f08c379a0000000000000000000000000000000000000000000000000000000008152600401612a68906144e8565b60405180910390fd5b505050565b6000808273ffffffffffffffffffffffffffffffffffffffff163b119050919050565b600073ffffffffffffffffffffffffffffffffffffffff168273ffffffffffffffffffffffffffffffffffffffff1603612b08576040517f08c379a0000000000000000000000000000000000000000000000000000000008152600401612aff906147ce565b60405180910390fd5b612b11816126f4565b15612b51576040517f08c379a0000000000000000000000000000000000000000000000000000000008152600401612b489061483a565b60405180910390fd5b612b5f600083836001612735565b612b68816126f4565b15612ba8576040517f08c379a0000000000000000000000000000000000000000000000000000000008152600401612b9f9061483a565b60405180910390fd5b6001600360008473ffffffffffffffffffffffffffffffffffffffff1673ffffffffffffffffffffffffffffffffffffffff16815260200190815260200160002060008282540192505081905550816002600083815260200190815260200160002060006101000a81548173ffffffffffffffffffffffffffffffffffffffff021916908373ffffffffffffffffffffffffffffffffffffffff160217905550808273ffffffffffffffffffffffffffffffffffffffff16600073ffffffffffffffffffffffffffffffffffffffff167fddf252ad1be2c89b69c2b068fc378daa952ba7f163c4a11628f55a4df523b3ef60405160405180910390a4612cb260008383600161273b565b5050565b6040518060a0016040528060608152602001606081526020016000815260200160008152602001600081525090565b6040518060c001604052806000815260200160608152602001606081526020016000815260200160008152602001600081525090565b6000604051905090565b600080fd5b600080fd5b60007fffffffff0000000000000000000000000000000000000000000000000000000082169050919050565b612d6481612d2f565b8114612d6f57600080fd5b50565b600081359050612d8181612d5b565b92915050565b600060208284031215612d9d57612d9c612d25565b5b6000612dab84828501612d72565b91505092915050565b60008115159050919050565b612dc981612db4565b82525050565b6000602082019050612de46000830184612dc0565b92915050565b600081519050919050565b600082825260208201905092915050565b60005b83811015612e24578082015181840152602081019050612e09565b60008484015250505050565b6000601f19601f8301169050919050565b6000612e4c82612dea565b612e568185612df5565b9350612e66818560208601612e06565b612e6f81612e30565b840191505092915050565b60006020820190508181036000830152612e948184612e41565b905092915050565b6000819050919050565b612eaf81612e9c565b8114612eba57600080fd5b50565b600081359050612ecc81612ea6565b92915050565b600060208284031215612ee857612ee7612d25565b5b6000612ef684828501612ebd565b91505092915050565b600073ffffffffffffffffffffffffffffffffffffffff82169050919050565b6000612f2a82612eff565b9050919050565b612f3a81612f1f565b82525050565b6000602082019050612f556000830184612f31565b92915050565b612f6481612f1f565b8114612f6f57600080fd5b50565b600081359050612f8181612f5b565b92915050565b60008060408385031215612f9e57612f9d612d25565b5b6000612fac85828601612f72565b9250506020612fbd85828601612ebd565b9150509250929050565b600080600060608486031215612fe057612fdf612d25565b5b6000612fee86828701612f72565b9350506020612fff86828701612f72565b925050604061301086828701612ebd565b9150509250925092565b600082825260208201905092915050565b600061303682612dea565b613040818561301a565b9350613050818560208601612e06565b61305981612e30565b840191505092915050565b61306d81612e9c565b82525050565b600060a0830160008301518482036000860152613090828261302b565b915050602083015184820360208601526130aa828261302b565b91505060408301516130bf6040860182613064565b5060608301516130d26060860182613064565b5060808301516130e56080860182613064565b508091505092915050565b6000602082019050818103600083015261310a8184613073565b905092915050565b60006020828403121561312857613127612d25565b5b600061313684828501612f72565b91505092915050565b61314881612e9c565b82525050565b6000602082019050613163600083018461313f565b92915050565b600060c08201905061317e600083018961313f565b81810360208301526131908188612e41565b905081810360408301526131a48187612e41565b90506131b3606083018661313f565b6131c0608083018561313f565b6131cd60a083018461313f565b979650505050505050565b6131e181612db4565b81146131ec57600080fd5b50565b6000813590506131fe816131d8565b92915050565b6000806040838503121561321b5761321a612d25565b5b600061322985828601612f72565b925050602061323a858286016131ef565b9150509250929050565b600060a082019050818103600083015261325e8188612e41565b905081810360208301526132728187612e41565b9050613281604083018661313f565b61328e606083018561313f565b61329b608083018461313f565b9695505050505050565b600080fd5b600080fd5b7f4e487b7100000000000000000000000000000000000000000000000000000000600052604160045260246000fd5b6132e782612e30565b810181811067ffffffffffffffff82111715613306576133056132af565b5b80604052505050565b6000613319612d1b565b905061332582826132de565b919050565b600067ffffffffffffffff821115613345576133446132af565b5b61334e82612e30565b9050602081019050919050565b82818337600083830152505050565b600061337d6133788461332a565b61330f565b905082815260208101848484011115613399576133986132aa565b5b6133a484828561335b565b509392505050565b600082601f8301126133c1576133c06132a5565b5b81356133d184826020860161336a565b91505092915050565b600080600080608085870312156133f4576133f3612d25565b5b600061340287828801612f72565b945050602061341387828801612f72565b935050604061342487828801612ebd565b925050606085013567ffffffffffffffff81111561344557613444612d2a565b5b613451878288016133ac565b91505092959194509250565b600081519050919050565b600082825260208201905092915050565b6000819050602082019050919050565b600060c0830160008301516134a16000860182613064565b50602083015184820360208601526134b9828261302b565b915050604083015184820360408601526134d3828261302b565b91505060608301516134e86060860182613064565b5060808301516134fb6080860182613064565b5060a083015161350e60a0860182613064565b508091505092915050565b60006135258383613489565b905092915050565b6000602082019050919050565b60006135458261345d565b61354f8185613468565b93508360208202850161356185613479565b8060005b8581101561359d578484038952815161357e8582613519565b94506135898361352d565b925060208a01995050600181019050613565565b50829750879550505050505092915050565b600060208201905081810360008301526135c9818461353a565b905092915050565b600060c0830160008301516135e96000860182613064565b5060208301518482036020860152613601828261302b565b9150506040830151848203604086015261361b828261302b565b91505060608301516136306060860182613064565b5060808301516136436080860182613064565b5060a083015161365660a0860182613064565b508091505092915050565b6000602082019050818103600083015261367b81846135d1565b905092915050565b6000806040838503121561369a57613699612d25565b5b60006136a885828601612f72565b92505060206136b985828601612f72565b9150509250929050565b7f4e487b7100000000000000000000000000000000000000000000000000000000600052602260045260246000fd5b6000600282049050600182168061370a57607f821691505b60208210810361371d5761371c6136c3565b5b50919050565b7f4552433732313a20617070726f76616c20746f2063757272656e74206f776e6560008201527f7200000000000000000000000000000000000000000000000000000000000000602082015250565b600061377f602183612df5565b915061378a82613723565b604082019050919050565b600060208201905081810360008301526137ae81613772565b9050919050565b7f4552433732313a20617070726f76652063616c6c6572206973206e6f7420746f60008201527f6b656e206f776e6572206f7220617070726f76656420666f7220616c6c000000602082015250565b6000613811603d83612df5565b915061381c826137b5565b604082019050919050565b6000602082019050818103600083015261384081613804565b9050919050565b7f4552433732313a2063616c6c6572206973206e6f7420746f6b656e206f776e6560008201527f72206f7220617070726f76656400000000000000000000000000000000000000602082015250565b60006138a3602d83612df5565b91506138ae82613847565b604082019050919050565b600060208201905081810360008301526138d281613896565b9050919050565b7f4552433732313a20696e76616c696420746f6b656e2049440000000000000000600082015250565b600061390f601883612df5565b915061391a826138d9565b602082019050919050565b6000602082019050818103600083015261393e81613902565b9050919050565b7f4552433732313a2061646472657373207a65726f206973206e6f74206120766160008201527f6c6964206f776e65720000000000000000000000000000000000000000000000602082015250565b60006139a1602983612df5565b91506139ac82613945565b604082019050919050565b600060208201905081810360008301526139d081613994565b9050919050565b600081905092915050565b7f7b226e616d65223a202200000000000000000000000000000000000000000000600082015250565b6000613a18600a836139d7565b9150613a23826139e2565b600a82019050919050565b6000613a3982612dea565b613a4381856139d7565b9350613a53818560208601612e06565b80840191505092915050565b7f202d2d204e465420233a20000000000000000000000000000000000000000000600082015250565b6000613a95600b836139d7565b9150613aa082613a5f565b600b82019050919050565b7f222c20226465736372697074696f6e223a20225468697320697320616e204e4660008201527f542074686174206c6574732070656f706c6520706c617920696e20746865206760208201527f616d65204d657461766572736520536c6179657221222c2022696d616765223a60408201527f2022000000000000000000000000000000000000000000000000000000000000606082015250565b6000613b536062836139d7565b9150613b5e82613aab565b606282019050919050565b7f222c202261747472696275746573223a205b207b202274726169745f7479706560008201527f223a20224865616c746820506f696e74222c202276616c7565223a2000000000602082015250565b6000613bc5603c836139d7565b9150613bd082613b69565b603c82019050919050565b7f2c20226d61785f76616c7565223a000000000000000000000000000000000000600082015250565b6000613c11600e836139d7565b9150613c1c82613bdb565b600e82019050919050565b7f7d2c207b202274726169745f74797065223a202241747461636b2044616d616760008201527f65222c202276616c7565223a2000000000000000000000000000000000000000602082015250565b6000613c83602d836139d7565b9150613c8e82613c27565b602d82019050919050565b7f7d205d7d00000000000000000000000000000000000000000000000000000000600082015250565b6000613ccf6004836139d7565b9150613cda82613c99565b600482019050919050565b6000613cf082613a0b565b9150613cfc8289613a2e565b9150613d0782613a88565b9150613d138288613a2e565b9150613d1e82613b46565b9150613d2a8287613a2e565b9150613d3582613bb8565b9150613d418286613a2e565b9150613d4c82613c04565b9150613d588285613a2e565b9150613d6382613c76565b9150613d6f8284613a2e565b9150613d7a82613cc2565b9150819050979650505050505050565b7f646174613a6170706c69636174696f6e2f6a736f6e3b6261736536342c000000600082015250565b6000613dc0601d836139d7565b9150613dcb82613d8a565b601d82019050919050565b6000613de182613db3565b9150613ded8284613a2e565b915081905092915050565b7f4572726f723a20636861726163746572206d757374206861766520485020746f60008201527f2061747461636b20626f73732e00000000000000000000000000000000000000602082015250565b6000613e54602d83612df5565b9150613e5f82613df8565b604082019050919050565b60006020820190508181036000830152613e8381613e47565b9050919050565b7f4572726f723a20626f7373206d757374206861766520485020746f206174746160008201527f636b20636861726163746572732e000000000000000000000000000000000000602082015250565b6000613ee6602e83612df5565b9150613ef182613e8a565b604082019050919050565b60006020820190508181036000830152613f1581613ed9565b9050919050565b7f4e487b7100000000000000000000000000000000000000000000000000000000600052601160045260246000fd5b6000613f5682612e9c565b9150613f6183612e9c565b9250828203905081811115613f7957613f78613f1c565b5b92915050565b6000604082019050613f94600083018561313f565b613fa1602083018461313f565b9392505050565b7f4e487b7100000000000000000000000000000000000000000000000000000000600052603260045260246000fd5b60008190508160005260206000209050919050565b60006020601f8301049050919050565b600082821b905092915050565b6000600883026140397fffffffffffffffffffffffffffffffffffffffffffffffffffffffffffffffff82613ffc565b6140438683613ffc565b95508019841693508086168417925050509392505050565b6000819050919050565b600061408061407b61407684612e9c565b61405b565b612e9c565b9050919050565b6000819050919050565b61409a83614065565b6140ae6140a682614087565b848454614009565b825550505050565b600090565b6140c36140b6565b6140ce818484614091565b505050565b5b818110156140f2576140e76000826140bb565b6001810190506140d4565b5050565b601f8211156141375761410881613fd7565b61411184613fec565b81016020851015614120578190505b61413461412c85613fec565b8301826140d3565b50505b505050565b600082821c905092915050565b600061415a6000198460080261413c565b1980831691505092915050565b60006141738383614149565b9150826002028217905092915050565b61418c82612dea565b67ffffffffffffffff8111156141a5576141a46132af565b5b6141af82546136f2565b6141ba8282856140f6565b600060209050601f8311600181146141ed57600084156141db578287015190505b6141e58582614167565b86555061424d565b601f1984166141fb86613fd7565b60005b82811015614223578489015182556001820191506020850194506020810190506141fe565b86831015614240578489015161423c601f891682614149565b8355505b6001600288020188555050505b505050505050565b600060608201905061426a6000830186612f31565b614277602083018561313f565b614284604083018461313f565b949350505050565b600060808201905081810360008301526142a68187612e41565b905081810360208301526142ba8186612e41565b90506142c9604083018561313f565b81810360608301526142db8184612e41565b905095945050505050565b7f4552433732313a207472616e736665722066726f6d20696e636f72726563742060008201527f6f776e6572000000000000000000000000000000000000000000000000000000602082015250565b6000614342602583612df5565b915061434d826142e6565b604082019050919050565b6000602082019050818103600083015261437181614335565b9050919050565b7f4552433732313a207472616e7366657220746f20746865207a65726f2061646460008201527f7265737300000000000000000000000000000000000000000000000000000000602082015250565b60006143d4602483612df5565b91506143df82614378565b604082019050919050565b60006020820190508181036000830152614403816143c7565b9050919050565b7f4552433732313a20617070726f766520746f2063616c6c657200000000000000600082015250565b6000614440601983612df5565b915061444b8261440a565b602082019050919050565b6000602082019050818103600083015261446f81614433565b9050919050565b7f4552433732313a207472616e7366657220746f206e6f6e20455243373231526560008201527f63656976657220696d706c656d656e7465720000000000000000000000000000602082015250565b60006144d2603283612df5565b91506144dd82614476565b604082019050919050565b60006020820190508181036000830152614501816144c5565b9050919050565b7f4e487b7100000000000000000000000000000000000000000000000000000000600052601260045260246000fd5b600061454282612e9c565b915061454d83612e9c565b925082820190508082111561456557614564613f1c565b5b92915050565b600061457682612e9c565b915061458183612e9c565b92508261459157614590614508565b5b828204905092915050565b60006145a782612e9c565b91506145b283612e9c565b92508282026145c081612e9c565b915082820484148315176145d7576145d6613f1c565b5b5092915050565b600060808201905081810360008301526145f88187612e41565b9050818103602083015261460c8186612e41565b905061461b604083018561313f565b614628606083018461313f565b95945050505050565b6000604082019050818103600083015261464b8185612e41565b905061465a602083018461313f565b9392505050565b6000606082019050818103600083015261467b8186612e41565b905061468a602083018561313f565b614697604083018461313f565b949350505050565b600081519050919050565b600082825260208201905092915050565b60006146c68261469f565b6146d081856146aa565b93506146e0818560208601612e06565b6146e981612e30565b840191505092915050565b60006080820190506147096000830187612f31565b6147166020830186612f31565b614723604083018561313f565b818103606083015261473581846146bb565b905095945050505050565b60008151905061474f81612d5b565b92915050565b60006020828403121561476b5761476a612d25565b5b600061477984828501614740565b91505092915050565b7f4552433732313a206d696e7420746f20746865207a65726f2061646472657373600082015250565b60006147b8602083612df5565b91506147c382614782565b602082019050919050565b600060208201905081810360008301526147e7816147ab565b9050919050565b7f4552433732313a20746f6b656e20616c7265616479206d696e74656400000000600082015250565b6000614824601c83612df5565b915061482f826147ee565b602082019050919050565b6000602082019050818103600083015261485381614817565b905091905056fe4d696e746564204e465420772f20746f6b656e494420257320616e6420636861726163746572496e6465782025734142434445464748494a4b4c4d4e4f505152535455565758595a6162636465666768696a6b6c6d6e6f707172737475767778797a303132333435363738392b2f506c617972652061747461636b656420626f73732e204e657720626f73732068703a202573426f73732061747461636b656420706c617965722e204e657720706c617965722068703a2025730a506c6179657220772f206368617261637465722025732061626f757420746f2061747461636b2e2048617320257320485020616e64202573204144a264697066735822122084ec9b17e5f538e8ef57b602511899cbf18c3007dfc4a04c71404daf2b70cd3364736f6c63430008120033446f6e6520696e697469616c697a696e6720257320772f2048502025732c20696d6167202573446f6e6520696e697469616c697a696e6720626f737320257320772f2048502025732c20696d6167202573",
  "linkReferences": {},
  "deployedLinkReferences": {}
}